:100000000C94CD010C9489030C94EB010C94EB013E
:100010000C94EB010C94EB010C94EB010C94EB01B0
:100020000C94EB010C94EB010C94EB010C94EB01A0
:100030000C94EB010C94EB010C94EB010C94EB0190
:100040000C94EB010C94EB010C94EB010C94EB0180
:100050000C94EB0109022200010100A03209040006
:1000600000010300000009210101000122690007CD
:1000700005810308000A1201100100000008401C5D
:100080002505010101020001120347004C00430055
:10009000440032005500530042003C0377007700D3
:1000A00077002E0068006100720062006100750038
:1000B0006D002E006F00720067002F007400690051
:1000C0006C006C002F0067006C006300640032005D
:1000D0007500730062000403090444726976657256
:1000E0003A20204B5330313038205625642E2530AD
:1000F000327820002A2A2A20474C43443255534262
:10010000202A2A2A0011470600FF0901A101150033
:1001100026FF007508850195250900B202018502B8
:1001200095010900B20201850395010900B202019F
:10013000850495010900B20201850895070900B2FE
:1001400002018509950B0900B20201850A95130980
:1001500000B20201850B95230900B20201850C95BE
:10016000430900B20201850D95830900B20201C066
:10017000014B533031303800000000000000000017
:10018000000000000000000000000000000000006F
:100190000080004000120B3E414141414242424238
:1001A0003C0006FFFFFFFFFFFF0000000000000013
:1001B0005F00000007000700147F147F14242A7FCB
:1001C0002A122313086462364955225000050300A1
:1001D00000001C2241000041221C00082A1C2A08A1
:1001E00008083E0808005030000008080808080009
:1001F0006060000020100804023E5149453E004264
:100200007F400042615149462141454B311814124B
:100210007F1027454545393C4A4949300171090558
:10022000033649494936064949291E003636000039
:10023000005636000000081422411414141414410E
:10024000221408000201510906324979413E7E110B
:1002500011117E7F494949363E414141227F41414A
:10026000221C7F494949417F090901013E41415111
:10027000327F0808087F00417F41002040413F0154
:100280007F081422417F404040407F0204027F7F6C
:100290000408107F3E4141413E7F090909063E4165
:1002A00051215E7F09192946464949493101017F9B
:1002B00001013F4040403F1F2040201F7F20182069
:1002C0007F631408146303047804036151494543B0
:1002D00000007F4141020408102041417F000004DA
:1002E000020102044040404040000102040020544A
:1002F0005454787F48444438384444442038444473
:10030000487F3854545418087E0901020814545484
:100310003C7F0804047800447D40002040443D00B8
:10032000007F10284400417F40007C041804787C42
:100330000804047838444444387C1414140808141D
:1003400014187C7C080404084854545420043F4486
:1003500040203C4040207C1C2040201C3C40304041
:100360003C44281028440C5050503C4464544C44A5
:10037000000836410000007F0000004136080008F8
:10038000082A1C08081C2A08083031323334353654
:100390003738394142434445460011241FBECFE55A
:1003A000D8E0DEBFCDBF10E0A0E6B0E0E2EFF4E2BF
:1003B00003C0C89531960D92AC36B107D1F721E054
:1003C000ACE6B0E001C01D92AF39B207E1F70E9480
:1003D000D9100C9477120C940000CF93C62F209163
:1003E000690124FF19C030916A0128E8232720936E
:1003F0006A012C2FFC01ABE6B1E081918D93215075
:100400001216DCF36C2F8BE691E00E948503CC5F23
:10041000C0936901CF9108952AE520936901E9CF3E
:10042000CF93DF9360917A01635067FD14C02091F0
:1004300077018CE090E0821B9109EC01C258DE4FFD
:10044000809176018D3209F452C080916C0087FD55
:1004500093C010927A018091610084FF3BC0C091EB
:100460006000CF3FB9F1C93008F469C088EF8C0F44
:100470008093600090915E0188E8892780935E01F7
:10048000C8E080916C0087FDA3C020917801309175
:10049000790186FF68C0AFE5B1E0F9018C2F949136
:1004A0009D9331968150D9F78FEF8C0F90E0019694
:1004B000280F391F30937901209378016C2F8FE535
:1004C00091E00E94850384E08C0F8C3009F047C0D6
:1004D0008093610094E180B3847431F49150D9F732
:1004E00010927B0110927501DF91CF9108956830D1
:1004F00009F0AFCF83EC80935E018AE580936100C1
:1005000010926C008881807609F041C09A81109227
:1005100067018981811147C01092680127E631E0A7
:1005200082E030937901209378019F81911104C07A
:100530009E81981708F4892F809360008ACF1092CB
:10054000600090915E0188E8892780935E01C11167
:1005500098CF60E08FE591E00E94850384E09FEFF3
:1005600090936000B5CFD901EFE5F1E08C2F9D911C
:1005700091938150E1F798CFCE010E949D068F3F65
:1005800019F1882309F465CF1092600062CFCE0183
:100590000E94B1058F3F49F6988197FD29C090E8E8
:1005A00090936C00C9CF853029F1863099F188305D
:1005B00069F1893029F18A3009F443C08B30D1F1D7
:1005C00027E631E080E0ADCF8EE18093610041CF3E
:1005D0006C2F8FE591E00E94FC05C82F893008F44C
:1005E0006DCF8FEF809360008EE18093610072CFBA
:1005F0008E81D5CF90937B0127E631E080E091CFCB
:1006000090937D0127E631E080E08BCF2DE731E04C
:1006100081E087CF8B818130D1F1823081F18330CD
:1006200021F18132D1F0823281F080E090E4909328
:100630006C007BCF8BE480936A0127E631E080E099
:1006400070CF27E631E081E06CCF87E091E09093B6
:1006500079018093780189E6E9CF86E690E090936E
:1006600079018093780189E0E1CF911118C086ED7E
:1006700090E0909379018093780184E0D7CF84E56E
:1006800090E0909379018093780182E2CFCF86E762
:1006900090E0909379018093780182E1C7CF913007
:1006A00051F0923011F688E890E0909379018093B0
:1006B000780182E1BBCF8AE990E090937901809341
:1006C00078018CE3B3CF85B7836085BF8BB7806437
:1006D0008BBFE9E6F1E08BE481838AE580830895AE
:1006E000A82FB92F80E090E041E050EA609530E01B
:1006F00009C02D9182279795879510F0842795271B
:10070000305EC8F36F5FA8F30895EADF8D939D9381
:100710000895CF93CFB7CF93DF93C395869BE9F727
:10072000869B0BC0869B09C0869B07C0869B05C025
:10073000869B03C0869B01C08BC06F93C0917701DD
:10074000DD27C258DE4F2F9365E5869B03C02F91AE
:100750006F91E6CF0F931F934F9320E040E15F939B
:1007600000B3047406FB27F93F9350E03BE039C027
:10077000147440642F77012F5F5F1EC0406810B370
:1007800014742F7752501FC0406400B32F77047445
:10079000D1F15F5F00C023C0406210B32F771474A3
:1007A00091F15F5F00C025C004741027515012F40E
:1007B0005D5F0000115027952C3F10B3C8F61474EC
:1007C0000127015027952C3FC8F64227499300B3D3
:1007D000047410274F73115027952C3FA8F64695A7
:1007E000469510B3147479F00127015027952C3FDA
:1007F00098F66B5A60F3315000B3B0F600C010E4C5
:100800001ABF002719C03B503195C31BD04010E4DC
:100810001ABF0881033C09F10B34F9F020917501EE
:100820001981110F1213EDCF4A81441F093651F17E
:100830000D3211F0013E29F700937C013F915F9149
:100840004F911F910F912F916F91CAB7C6FD65CF40
:10085000DF91CF91CFBFCF91189520917C012223BA
:1008600069F310917A01112391F5343092F13093AC
:100870007A0120937601109177013BE0311B309390
:10088000770127C000917A0101300CF50AE54F701D
:1008900049F43091610034FD1DC000936100CEE544
:1008A000D1E01CC03091690134FD14C0009369018E
:1008B000CAE6D1E013C0052710E000C0000002BB6B
:1008C0001AC0052710E0221F1DC010E021C04AE514
:1008D00002C032ED432FC4E1D0E032E011B3146422
:1008E000969A02B311BB54E420E865E320FF052784
:1008F00002BB279517951C3FF0F66695B8F7B1F740
:1009000020FF052702BB279517951C3FD0F627959A
:10091000179517FF052700001C3F02BBB0F6299171
:100920003A9519F70B7B10917B01110FC651D040FE
:1009300002BB11F01093750110E41ABF006411B3EB
:100940001B7B402F4B7B54E05A95F1F702BB11BB48
:1009500042BB74CF4F925F926F927F928F929F9221
:10096000AF92BF92CF92DF92EF92FF920F931F93BD
:10097000CF93DF93609186007091870077FD22C04E
:1009800000918C0020918A00409188008BED98E0C6
:100990000E9404090091900020918E0040918C00EB
:1009A00060918A008BED98E00E9404090091880014
:1009B000209186004091900060918E008BED98E030
:1009C0000E94040944E250E062E970E086E890E0A9
:1009D0000E941B120AEA10E08AE7682E80E0782E57
:1009E0009EE6A92E90E0B92E2CE7C22E20E0D22E52
:1009F00030E7E32E30E0F32ECCEAD0E048EB842E53
:100A000040E0942E53E0452E512CF301208131819A
:100A1000F50180819181289FA001299F500D389F69
:100A2000500D1124F80180819181840F951F803829
:100A3000910508F072C0F80191838083F60120814E
:100A40003181F70180819181289FA001299F500D5C
:100A5000389F500D112488819981840F951F80340F
:100A6000910508F04AC0998388830C5F1F4FF4E01A
:100A70006F0E711C84E0A80EB11CE4E0CE0ED11CF8
:100A8000F4E0EF0EF11C24968C169D0609F0BDCF04
:100A90000091B0002091AE004091AC006091AA009E
:100AA0008BED98E00E9404090091B4002091B200FF
:100AB0004091B0006091AE008BED98E00E94040977
:100AC0000091AC002091AA004091B4006091B20066
:100AD0008BED98E00E940409DF91CF911F910F9157
:100AE000FF90EF90DF90CF90BF90AF909F908F904E
:100AF0007F906F905F904F900895319521953109C7
:100B0000F601318320830E940012B2010E9441113C
:100B10000196F70191838083A8CF31952195310902
:100B2000F301318320830E940012B2010E9441111F
:100B30000196F5019183808381CF8091980196B3CE
:100B400090959F7090939801089586B390E080955A
:100B500090958F70992790919801892B8093980197
:100B60000895FC0186EB90E09093790180937801E1
:100B700090819076903211F080E0089581818130EB
:100B8000B1F08930C9F783818330B1F78281843035
:100B900029F110F18850863078F788E0809394012D
:100BA0008FEF9FEF90939601809395010895838135
:100BB000833011F782818130A9F08330E9F6809388
:100BC000B6009091980186B380958F7080939801BC
:100BD0009093B70082E00895823071F6809394017B
:100BE0008FEF089546E250E060E771E086EB90E019
:100BF0000E940F1286E20895862F089580936D005B
:100C000008950F931F93CF93DF9360E080E10E94DC
:100C1000730884EF90E09F938F93C1E0CF930E947D
:100C2000D90C61E081E00E9473081F92CF931F925C
:100C3000CF938AED90E09F938F93CF930E94D90C2E
:100C40008FEF9FEF9093870080938600909393009F
:100C50008093920090939F0080939E009093AB00AE
:100C60008093AA00CCEAD0E08DB79EB70A960FB663
:100C7000F8949EBF0FBE8DBF03E010E00E940012EB
:100C80008F77907897FD54C0FE01329791838083CF
:100C9000B497918380830E9400128F73907897FDA0
:100CA00042C099838883FE01B497918380830E9418
:100CB0000012FE01FE97B8010E9441110196918336
:100CC00080830E940012FE01FC97B8010E9441112E
:100CD0000196918380830E94001280FD21C08FEFD6
:100CE0009FEFFE01F297918380830E94001280FDA6
:100CF00014C08FEF9FEFFE01F097918380832496BD
:100D000090E0C83BD90709F0B9CF81E080936D002E
:100D1000DF91CF911F910F91089581E090E0EBCF8B
:100D200081E090E0DECF0197806C9F6F0196B9CF94
:100D3000019780689F6F0196A7CFFF920F931F9333
:100D4000CF93DF93EC01F62E809194018430E9F18A
:100D50008830B9F0823039F08F2DDF91CF911F911B
:100D60000F91FF90089589818823D1F10E9458083E
:100D700010926D008F2DDF91CF911F910F91FF90F9
:100D8000089580919501909196010196A1F180912D
:100D900097019F2D8F1510F1891B809397010FEFFD
:100DA000090F9923C9F210E00F5F1F4F0C0F1D1F91
:100DB00089910E94B107C017D107D1F78F2DDF911C
:100DC000CF911F910F91FF90089589818ABD8F2D3A
:100DD000DF91CF911F910F91FF900895982FDCCF55
:100DE0000E9458080E9401068F2DDF91CF911F911C
:100DF0000F91FF9008958A8190E0982F882729818C
:100E0000820F911D90939601809395012B812093E1
:100E1000970124962CEFF20EBC01660F672F661F18
:100E2000770B71958F770E947308B1CF80916D0019
:100E300081110C94AA040895DC9ADB980895DF9838
:100E4000DE98DD98DC98DB98D898D79AD69AD59A10
:100E5000D49AD39AD09A15BA8FEF84BB0895882379
:100E600019F0DC98DB9A08950C941C078823B9F0DC
:100E7000DC98DB9A15BA14BADE9ADF98DD9A000086
:100E8000000000000000000000000000000083B32C
:100E90008079E9F7DD98DE988FEF84BB08950E9492
:100EA0001C07E8CFCF93DF931F92CDB7DEB76983DE
:100EB0000E943607DF98DE98DD9A8FEF84BB698148
:100EC00065BB000000000000000000000000000002
:100ED0000000DD980F90DF91CF9108950E943607B2
:100EE000DF9814BADE9ADD9A0000000000000000CE
:100EF000000000000000000083B3DD98DE989FEF43
:100F000094BB0895811102C0D89A0895D898089585
:100F1000CF93DF93C9E9D1E0888360E480E00E9449
:100F200052071A8260E481E00E9452071C82888185
:100F3000682F6F7360648295869586958370DF91C4
:100F4000CF910C945207CF9380939A01C82FC86B0E
:100F50006C2F80E00E9452076C2F81E0CF910C949F
:100F60005207CF93DF93D82FE0919901CE2FC295EE
:100F7000C695C695C3708C2F0E9436078FEF84BB31
:100F8000D5BBDF9ADE98DD9A00000000000000006B
:100F90000000000000000000DD98EC2FF0E0EE0FF4
:100FA000FF1FE556FE4F80818F5F808380919901FE
:100FB0008F5F8093990187FD03C0DF91CF910895E2
:100FC00080919A018F5F0E94A30780E0DF91CF910B
:100FD0000C9488071F93CF93DF93182FE09199010A
:100FE000CE2FC295C695C695C3708C2F0E9436072A
:100FF00015BA14BA8BB3806E8BBB000000000000E2
:1010000000000000000000000000D3B38BB38F711C
:101010008BBB111110C0EC2FF0E0EE0FFF1FE55657
:10102000FE4F80818F5F8083809199018F5F8093D5
:10103000990187FD05C08D2FDF91CF911F910895F4
:1010400080919A018F5F0E94A30780E00E94880729
:101050008D2FDF91CF911F91089560EC80E00E9469
:10106000520760EC81E00E94520780E00E94A307D3
:1010700080E00E948807E9E9F1E01382128215827C
:1010800014820895CF93DF93D0E08D2F0E94A307A1
:1010900080E00E948807C0E080E00E94B107CF5F37
:1010A000C038D1F7DF5FD83081F7DF91CF91089555
:1010B0000E941F07D89A6FE380E00E9452076FE3F7
:1010C00081E00E9452070E9442080C942D08CF93A1
:1010D000C82FC06C6C2F80E00E9452076C2F81E0FB
:1010E000CF910C945207CF93C82F862F0E94A3074D
:1010F0008C2FCF910C948807CF93C62F0E94A30703
:101100008C2F880F8C0F880FCF910C94880708952F
:101110000F931F93CF93DF93D82FC62F162F1695BB
:1011200016951695612F0E94730881E00E94EA07C8
:1011300080E00E94EA07082F612F8D2F0E9473081C
:10114000C77081E090E001C0880FCA95EAF7802B54
:101150000E94B10780E0DF91CF911F910F910C9415
:1011600067080F931F93CF93DF93D82FC62F162FA7
:10117000169516951695612F0E94730881E00E94BE
:10118000EA0780E00E94EA07082F612F8D2F0E9456
:101190007308C77081E090E001C0880FCA95EAF734
:1011A000809580230E94B10780E0DF91CF911F914D
:1011B0000F910C9467080F931F93CF93DF93D82F51
:1011C000C62F162F169516951695612F0E94730837
:1011D00081E00E94EA0780E00E94EA07082F612F61
:1011E0008D2F0E947308C77081E090E001C0880FC6
:1011F000CA95EAF780270E94B10780E0DF91CF917E
:101200001F910F910C9467086F927F928F929F921B
:10121000AF92BF92CF92DF92EF92FF920F931F9304
:10122000CF93DF936C01C62FD42FB22E822E912C38
:10123000861A9108802F90E0841B910918141904D4
:101240000CF052C077247394181619060CF052C093
:101250006624639497FC52C097FD55C08816990682
:1012600054F18C01000F111F7801E818F908880C5F
:10127000991CBC1671F06D2F8C2FF6010995F7FCA7
:1012800003C0D60DE818F908E00EF11EC70DBC1218
:10129000F2CF6D2F8C2FF601DF91CF911F910F911F
:1012A000FF90EF90DF90CF90BF90AF909F908F9086
:1012B0007F906F900994880C991C7401E81AF90AC0
:1012C0005C01AA0CBB1C0D1721F36D2F8C2FF601AE
:1012D0000995F7FC03C0C70DEA18FB08E80CF91CD8
:1012E000D60D0D13F2CFD5CF77247A9418161906A0
:1012F0000CF4AECF66246A9497FEAECF919481949D
:10130000910897FFABCF919581959109A7CFDF9277
:10131000EF92FF920F931F93CF93DF93C82FF62E78
:10132000042F122F442391F0EE24EA94E20EE80EEB
:10133000D42ED60ED62F6D2F8C2F0E9488086D2F9D
:101340008E2D0E948808DF5FDD12F5CF112381F01A
:101350008FEF8F0D080FDC2FD10F6F2D8C2F0E9478
:101360008808602F8C2F0E948808CF5FDC13F5CF90
:10137000DF91CF911F910F91FF90EF90DF90089533
:101380004F925F926F927F928F929F92AF92BF9295
:10139000CF92DF92EF92FF920F931F93CF93DF9341
:1013A000462E562E581A042F10E09801220F331F94
:1013B00043E050E05A01A21AB30AE62EF62E56E098
:1013C000852E912CC12CD12C682E661A17C0C6010F
:1013D000801B910B880F991F880F991F0A96A80EE2
:1013E000B91E015011098FEFC81AD80AF394EA9474
:1013F00084E0880E911C0C151D057CF1C42DC00FD6
:101400006C2F762C7F0C872D0E948808D42DD01B42
:101410006D2F872D0E9488086C2F762C7E0C872DCF
:101420000E9488086D2F872D0E948808C5196F2D8E
:101430008C2F0E9488086E2D8C2F0E948808D51949
:101440006F2D8D2F0E9488086E2D8D2F0E94880889
:10145000B7FEBDCFA80CB91CC6CFDF91CF911F91AD
:101460000F91FF90EF90DF90CF90BF90AF909F9043
:101470008F907F906F905F904F9008950F931F9380
:10148000CF93DF93082F10E000521109C801880F95
:10149000991F880F991F080F191FE801C755DE4FC4
:1014A00002551E4FFE0184910E94B1072196C0177C
:1014B000D107C1F780E00E94B10780E0DF91CF91B2
:1014C0001F910F910C9467080F931F93CF93DF9395
:1014D000882311F1C0E090E0EC2FF0E0EA56FE4FD7
:1014E000E491CE0F9F5F8913F7CFD0E0FE01EA565B
:1014F000FE4F0491002359F0C956DE4F10E0FE0163
:1015000084910E94B1071F5F21960113F8CFDF91EC
:10151000CF911F910F910895E6E9F1E0C0E0D0E08E
:10152000E8CFCF93DF93EC018881882331F02196B7
:101530000E943E0A89918111FBCFDF91CF910895DE
:101540009093DD008093DC000895CF93C82F8A30FC
:1015500039F0E091DC00F091DD008C2FCF910994FF
:10156000E091DC00F091DD008DE00995E091DC0078
:10157000F091DD008C2FCF9109940F931F93CF939F
:101580000097E1F0FC01C081CC23C1F08C010F5F1A
:101590001F4F0BC0E091DC00F091DD008C2F09950E
:1015A000F801C1918F01CC2349F0CA3099F7E0913D
:1015B000DC00F091DD008DE00995ECCFCF911F911B
:1015C0000F910895CF92DF92EF92FF921F93CF93E6
:1015D000DF936A01009789F1EC01C60FD71F06C09F
:1015E0000196FC01319720812223B1F18C179D07D0
:1015F000B9F7C114D10409F1E12CF12C0FC02196E7
:101600001A3019F1E091DC00F091DD00812F09958D
:101610008FEFE81AF80ACE14DF0479F0188111115F
:10162000EECFE091DC00F091DD0080E209958FEFD4
:10163000E81AF80ACE14DF0489F7DF91CF911F91E1
:10164000FF90EF90DF90CF900895E091DC00F09153
:10165000DD008DE00995D6CFEC01CBCF0F931F9322
:10166000CF930097E9F08C010F5F1F4FFC01C491ED
:10167000C1110DC015C0E091DC00F091DD008C2F90
:101680000995F801C4910F5F1F4FCC2349F0CA3070
:1016900091F7E091DC00F091DD008DE00995EBCF52
:1016A000CF911F910F910895E091DC00F091DD0042
:1016B0008DE00995E091DC00F091DD008AE009946D
:1016C000CF938F70E82FF0E0E757FC4FC491CA30FA
:1016D00039F0E091DC00F091DD008C2FCF9109947E
:1016E000E091DC00F091DD008DE00995E091DC00F7
:1016F000F091DD008C2FCF910994CF93DF93C82F09
:10170000E82FE295EF70F0E0E757FC4FD491DA3024
:1017100021F1E091DC00F091DD008D2F0995CF7073
:10172000EC2FF0E0E757FC4FC491CA3041F0E09154
:10173000DC00F091DD008C2FDF91CF910994E091D6
:10174000DC00F091DD008DE00995E091DC00F09186
:10175000DD008C2FDF91CF910994E091DC00F091B6
:10176000DD008DE00995D5CFCF93C82F892F0E943A
:101770007D0B8C2FCF910C947D0B8F929F92AF920B
:10178000BF92CF92DF92EF92FF926B017C014701F3
:10179000AA24BB24892D0E947D0B882D0E947D0BDD
:1017A0008D2D0E947D0B8C2DFF90EF90DF90CF90C0
:1017B000BF90AF909F908F900C947D0B2F923F9293
:1017C0004F925F926F927F928F929F92AF92BF9251
:1017D000CF92DF92EF92FF920F931F93CF93DF93FD
:1017E000CDB7DEB7A1970FB6F894DEBF0FBECDBF61
:1017F000882E69A3642E722E17012801442311F04C
:1018000017FD8EC0C201B10109A1015021E0611094
:1018100001C020E0F02EF21A18A2082C000C990842
:10182000AA08BB08A50194010E945411FB01EF70A6
:10183000FF27E757FC4FE491EF8FB901CA016E0112
:101840002EE1C20ED11C1F2D11C0A50194010E94D2
:101850005411FB01EF70FF27E757FC4FE491D601CD
:10186000EC93B901CA01F1E0CF1AD108115040F050
:10187000611571058105910541F7F6017082F3CF7D
:101880006E012FE1C20ED11CCF18D108662059F08D
:10189000F60157FC41C023282428252809F448C014
:1018A0008BE282936F0189A18823E9F0A02EB12CED
:1018B000AFEFAA1ABA0AAC0CBD1C09C0E091DC005B
:1018C000F091DD00812F0995CA14DB0461F0F60167
:1018D00011916F011A3091F7E091DC00F091DD0079
:1018E0008DE00995EBCFA1960FB6F894DEBF0FBE41
:1018F000CDBFDF91CF911F910F91FF90EF90DF90BF
:10190000CF90BF90AF909F908F907F906F905F909F
:101910004F903F902F9008958DE282936F01C3CF37
:1019200066277727CB016E197F09800B910B6CCF4F
:1019300080E282936F01B7CF90ED980F81E09A30EB
:1019400008F080E081950895FB0120E030E08823D5
:10195000C1F0949190539A3050F5A901440F551F4E
:10196000220F331F220F331F220F331F420F531F2B
:10197000249130E020533109240F351F3196811115
:10198000E8CF908140ED490F4A3088F4A901440F17
:10199000551F220F331F220F331F220F331F420FF9
:1019A000531F292F990F330B20533109E5CFC9015C
:1019B00008952F923F924F925F926F927F928F92F3
:1019C0009F92AF92BF92CF92DF92EF92FF920F93CE
:1019D0001F93CF93DF931F92CDB7DEB76E884F88EA
:1019E000588C1E0129E1220E311C18C0F20184918D
:1019F000882309F4DDC1F2018491853209F4FBC02A
:101A0000F20114911A3009F4F2C1E091DC00F09176
:101A1000DD00812F0995EFEF4E1A5E0A6110E6CFC7
:101A2000D2011C91112309F4C3C1153259F7620187
:101A3000FFEFCF1ADF0AD20111968C918D3209F493
:101A400088C3812C912C803309F4A9C18E3209F40A
:101A5000A6C1E0E27E2E8A32E1F1D6018C9190EDB2
:101A6000980F9A3008F4F1C081012601E12CF12C85
:101A70008E3209F400C19EEFC92E9FE7D92EF201E4
:101A80009081933209F458C39C3609F47CC320E05A
:101A900030E0A12CB12CE92FF0E0EF36F10509F48C
:101AA00053C0E037F1050CF0FCC0E336F10509F452
:101AB00095C1E436F10509F4A1C1B59711F01801FB
:101AC000AACFE091DC00F091DD0085E209951801D4
:101AD000A2CF81010E5F1F4FD101ED90FC90260136
:101AE000BFEF4B1A5B0AF201662009F4C0C0E49113
:101AF000EE3209F427C17EEFC72E7FE7D72E66208E
:101B000009F4BDCFF2018491833209F038C3D201C8
:101B10001196662009F412C3FD01AA24A394B12CE6
:101B200024912C3609F03BC32D01FFEF4F1A5F0AB9
:101B3000662009F41FC3F20121E030E0E491F0E0F7
:101B4000EF36F10509F0ADCF1801232B09F0DDC107
:101B5000B2E02B0E311CD8016D917C9180E090E0B9
:101B6000E537F10509F4DDC1EF36F10509F477C277
:101B7000E837F10509F499C280E090E00DED10E03E
:101B8000E81AF90A8114910409F0ECC16701F1E047
:101B9000CF1AD1081E141F040CF0CAC2E091DC0059
:101BA000F091DD00872D099521E0C21AD108B0F728
:101BB00081E090E002977C0130E00E3D130770F465
:101BC0002ACFE091DC00F091DD00892F09950150CA
:101BD0001109B0E00E3D1B0708F41BC2D8019C910F
:101BE0009A3079F7E091DC00F091DD008DE0998387
:101BF00009959981E6CF6201FFEFCF1ADF0AF6015E
:101C000084918D3209F0C3C26201B2E0CB0ED11CC7
:101C100088248394912CF6018491803309F4B9C00F
:101C2000F60184918E3209F4B4C0F0E27F2EF60101
:101C300084918A3209F44DCF662009F40ECFF60163
:101C4000849180538A3008F0A5C2B601862D0E9487
:101C5000A40C7C016110ABC1D6018C9180538A30F9
:101C600008F4ABC181012601F201611040CF8081EF
:101C70008E3209F000CFD20111969C919A3209F46C
:101C80007FC0FFEF4F1A5F0A80ED890F8A3008F49A
:101C900051C25EEFC52E5FE7D52E933209F0F4CE28
:101CA00036CFE537F10509F44FCFE837F10509F4F0
:101CB0004BCFE337F10509F002CF1801B2E02B0E4C
:101CC000311CF801A080B180A114B10409F4E6C16F
:101CD000F50101900020E9F73197EA19FB09EE1AA6
:101CE000FF0A8114910409F443C1F50190819923FD
:101CF00009F46AC11C141D040CF066C185010F5F54
:101D00001F4F3FEFC31AD30AAC0CBD1C10C0E091AB
:101D1000DC00F091DD00892F0995D8019D918D019E
:101D2000992309F44EC1AA15BB0509F44AC19A309A
:101D300071F7E091DC00F091DD008DE09983099569
:101D40009981E5CF5201BFEFAB1ABB0AF50184912F
:101D50008A32B1F0F501849180538A3008F023C2B1
:101D6000B501862D0E94A40C6C01662009F46DC19A
:101D7000F501849180538A3008F46DC12501BFCEEE
:101D8000D801CD90DC90B2E04B0E511C0E5F1F4F7E
:101D9000B6CEFFEFCF1ADF0A50E3752E48CFD6013B
:101DA00011968C91F60131966F0140E3742E53CE5B
:101DB00080E090E00F90DF91CF911F910F91FF9005
:101DC000EF90DF90CF90BF90AF909F908F907F90DB
:101DD0006F905F904F903F902F9008951801F2E020
:101DE0002F0E311CD8011C911A3009F00ECEE09153
:101DF000DC00F091DD008DE0099507CE1801232B62
:101E000009F06EC0B2E02B0E311CF80160817181C7
:101E1000072E000C880B990B97FD6CC0A12CB12CE0
:101E20000EEDC02E00E0D02E01C0680186010F5FCC
:101E30001F4F2AE030E040E050E00E947B11605DDF
:101E4000D6016C93B901CA0161157105810591052F
:101E500061F7AB2829F00F5F1F4F2DE2F6012183B8
:101E6000C8018E5D9040E81AF90A8114910409F0C6
:101E7000E4C0670131E0C31AD1081E141F040CF03E
:101E800055C1E091DC00F091DD00872D099581E0DE
:101E9000C81AD108B0F7A1E0B0E012977D01015057
:101EA000110920E00E3D120770F4B5CDE091DC0081
:101EB000F091DD00892F099501501109F0E00E3DE8
:101EC0001F0708F492C0F80190819A3079F7E091E9
:101ED000DC00F091DD008DE0998309959981E6CFD2
:101EE00024E0220E311CD8016D917D918D919C9141
:101EF00097FF94CF90958095709561957F4F8F4F08
:101F00009F4FAA24A394B12C8BCF34E0230E311C15
:101F1000D8016D917D918D919C91E537F10509F086
:101F200023CE1EEDC12E10E0D12EBFEFCB1ADB0A5F
:101F30002AE030E040E050E00E945411605DF6017C
:101F400062938F01B901CA0161157105810591057F
:101F500061F7C6018E5D9040E81AF90A8114910478
:101F600009F414CE80E00E3D180708F037CE54C0B7
:101F70008701015011091E141F040CF0D5C0E09117
:101F8000DC00F091DD00872D099501501109B8F7AB
:101F900021E030E0225031097901D5019C9199234B
:101FA00009F439CD1C141D040CF4A8CE34CDF6016F
:101FB000849180538A3008F055CEBFEFCB1ADB0AEC
:101FC00049CE892809F427CD8701015011091E1433
:101FD0001F040CF020CDE091DC00F091DD0080E2E8
:101FE000099501501109B8F716CD892809F413CDC8
:101FF0008701015011091E141F040CF00CCDE09153
:10200000DC00F091DD0080E2099501501109B8F77C
:1020100002CD892809F4FFCC8701015011091E1453
:102020001F040CF0F8CCE091DC00F091DD0080E2C0
:10203000099501501109B8F7EECC01501109F0E0F3
:102040000E3D1F0708F03FCFD3CFD5018C918053B1
:102050008A3008F093CEEFEFAE1ABE0A86CEEEEDD0
:10206000F0E001C0F6016F012FEFC21AD20A262F4D
:102070002770205D2083B3E09695879577956795C7
:10208000BA95D1F7611571058105910559F7AB280E
:10209000A9F5C6018E5D90408F0172CDE5E0F0E0BC
:1020A00066E6A62E60E0B62E1ACE4FED50E0EEEDBD
:1020B000F0E011C0205D2083A4E096958795779588
:1020C0006795AA95D1F74F5F5F4F319661157105FE
:1020D0008105910551F09B012F7033276A012A3049
:1020E000310544F3295A2083E7CFAB2881F4C60198
:1020F0008E5D904086010150110942CD80E38183BD
:10210000CF018C5D90408F010F5F1F4F39CDE8E705
:10211000D601EC9380E311968C93C6018C5D9040C0
:1021200086010F5F1F4F2CCD780137CF7601B7CED8
:10213000760142CD520114CED2011196F201918165
:102140002D019C3689F020E030E0AA24A394B12C24
:10215000A2CC6201E2E0CE0ED11CD20112968C918B
:1021600088248394912C6FCCEFEF4E1A5E0AAA2438
:10217000A394B12C11969C9121E030E08CCCD2013B
:10218000A12CB12CCDCCD201A12CB12CCDCC812C49
:10219000912C41CD81012601E12CF12CA8CC2D01FF
:1021A00020E030E0CBCC25016EEFC62E6FE7D62EB7
:1021B000AACC9EE088E10FB6F894A89581BD0FBE29
:1021C00091BD82B38B7B82BB81B3846481BB80E48D
:1021D0009CE90197F1F781B38B7B81BB8C9A949832
:1021E00087B3807F87BB88B38F6088BB85E083BF60
:1021F0008D9A8FB589688FBD8EB581608EBD80E266
:102200008ABD0E94630380E090E00E943912813110
:10221000974471F0E5E0F1E0649180E090E00E9485
:102220003F12E6E0F1E0649181E090E00E943F120D
:102230000E9458088EE39AE00E94A00A0E940106BC
:10224000789480916D00811119C0A8950E941002A8
:1022500086B390E0809590958F7099279091980122
:10226000892B809398018091000090910100892B27
:1022700041F386B38F708A3021F7FFCF0E94AA0402
:10228000E4CF97FB072E16F4009406D077FD08D014
:102290004ED007FC05D03EF4909581959F4F089550
:1022A000709561957F4F0895A1E21A2EAA1BBB1B62
:1022B000EA2FFB2F0DC0AA1FBB1FEE1FFF1FA21787
:1022C000B307E407F50720F0A21BB30BE40BF50BF3
:1022D000661F771F881F991F1A9469F7609570957C
:1022E00080959095262F372F482F592F6A2F7B2FB7
:1022F0008E2F9F2F0895052E97FB16F400940FD074
:1023000057FD05D0D1DF07FC02D046F408C0509538
:102310004095309521953F4F4F4F5F4F08959095D1
:102320008095709561957F4F8F4F9F4F0895AA1BA1
:10233000BB1B51E107C0AA1FBB1FA617B70710F0B0
:10234000A61BB70B881F991F5A95A9F780959095E2
:10235000682F792F8A2F9B2F08958F929F92AF928B
:10236000BF92CF92DF92EF92FF92CF93DF93C82F6D
:10237000D92F688179818A819B81611571058105D9
:10238000910521F464E279ED8BE597E02DE133EFDF
:1023900041E050E0B0DF822E932EA42EB52E27EA26
:1023A00031E440E050E088D0C62ED72EE82EF92E3A
:1023B0002CEE34EF4FEF5FEF9B2D8A2D792D682D9A
:1023C0007BD0B92FA82F972F862F8C0D9D1DAE1D6A
:1023D000BF1DB7FF03C00197A109B0488883998347
:1023E000AA83BB839F77DF91CF91FF90EF90DF901F
:1023F000CF90BF90AF909F908F900895AEDF0895DB
:1024000082E690E0AADF0895A0E0B0E08093620049
:1024100090936300A0936400B09365000895E62F45
:10242000F72FA82FB92F03C0C89531960D924150B0
:102430005040D0F708956817790778F4E62FF72F02
:10244000A82FB92FE40FF51FA40FB51F02C00290EB
:102450000E9241505040D8F7089500C0E62FF72F54
:10246000A82FB92F02C001900D9241505040D8F7CB
:102470000895A8E1B0E042E050E00C944E12262FFF
:10248000E199FECF9FBB8EBB2DBB0FB6F894E29AAD
:10249000E19A0FBE01960895DC01CB01FC01E199A0
:1024A000FECF06C0FFBBEEBBE09A31960DB20D9297
:1024B00041505040B8F70895EE27FF27AA27BB27C1
:1024C00008C0A20FB31FE41FF51F220F331F441FC4
:1024D000551F969587957795679598F37040A9F75E
:1024E000009799F76A2F7B2F8E2F9F2F0895F894CE
:0224F000FFCF1C
:0C24F200FF5A01000000286E696C2900F0
:00000001FF
